:1000000008090020C51F0000C11F0000C11F00001B
:1000100000000000000000000000000000000000E0
:10002000000000000000000000000000C11F0000F0
:100030000000000000000000C11F0000C11F000000
:10004000C11F0000C11F0000C11F0000C11F000030
:10005000C11F0000C11F0000890600000000000051
:10006000C11F0000391000004910000059100000A5
:10007000C11F00008D1700009D170000C90500007A
:10008000C11F0000C11F0000C11F000010B5064CB9
:100090002378002B07D1054B002B02D0044800E049
:1000A00000BF0123237010BD50010020000000009C
:1000B000D0340000084B10B5002B03D00749084886
:1000C00000E000BF07480368002B00D110BD064BBD
:1000D000002BFBD09847F9E70000000054010020F6
:1000E000D0340000D03400000000000070B50020C3
:1000F000084B98470500084CFA218900A047074B98
:10010000186007492800A047064B18600522064BD7
:100110001A6070BD511D0000E52E00000000002097
:1001200040420F000400002010E000E030B5084B12
:100130001C68084A002580214902013807D3002C99
:10014000FBD05460956013680B42FCD0F5E730BDDE
:100150000400002010E000E010B50022002302702F
:10016000427000214280017103760262C2618260A6
:100170000373C0246401C481037443748374C3741F
:1001800003752A24035543758375063C0355C284C1
:100190000285C1752B23C1540133C15410BD000029
:1001A000F0B5D6464F464646C0B596B00700160095
:1001B0000160C64A106A80235B00034313620B7818
:1001C0000520DB0705D516B01CBC90469946A24613
:1001D000F0BD0B7817309B07F5D473783B71002B7B
:1001E00004D1BB4A136C04210B4313640023BB608E
:1001F000FB603B61BB76FB763B833B77B54B1F6077
:100200002A23F35C002B05D1337D002B02D101336F
:100210007B7701E000237B773B68984633786A461A
:10022000137069461320AC4B98471320AB4B98478B
:100230002C23F25C002A54D0013BF55C337BEB1895
:10024000DBB2D118C9B28B4221D25219D3B299462E
:10025000A34B9A4603E00135EDB24D4517D00F246C
:100260002C40337BE41850229E4902A8D047092C29
:10027000F1D8A40002ABE05801A900234B70CB7069
:100280008B7001330B70C0B2974B9847E3E7F4894A
:100290005022944902A8924B9847092C13D9737D98
:1002A0009B00DBB242461370B37DDB0172781343CF
:1002B000DBB2424653703379342B00D97BE19B008B
:1002C0008A4AD3589F46A40002ABE05801A90023F4
:1002D0004B70CB708B7001330B70C0B2824B984760
:1002E000DDE7347B50227F4902A87D4B9847092CDB
:1002F00015D9F48950227B4902A8794B9847092CDB
:10030000CDD8A40002ABE05801A900234B70CB70FC
:100310008B7001330B70C0B2734B9847BFE7A400DA
:1003200002ABE05801A900234B70CB708B700133F6
:100330000B70C0B26C4B9847DBE7042310240221FA
:100340001AE0717C337C102416E00623102401216E
:1003500012E00823102400210EE0002330240021A5
:100360000AE000232024002106E0002300240021CD
:1003700002E0022310240121090170220A401343E4
:1003800042469370F37D17203F2B00D91BE7D370B3
:100390003A68537E5BB2002BFBDBF37C728813431D
:1003A0002422B25CD2001343327D92001343B27C0C
:1003B00052001343234342469380337E002B20D0C8
:1003C000102C00D1D9E000D898E0202C00D1B6E064
:1003D000302C16D1F27C002A0AD0F2698032172024
:1003E000FF2A00D9EFE6326A8032FF2A00D9EAE616
:1003F0001720F269FF2A00DDE5E6326AFF2A00DDF8
:10040000E1E639684A7E52B2002AFBDB42461372AB
:100410003A68537E5BB2002BFBDBB38B424693837F
:100420003A68537E5BB2002BFBDB338C424613846D
:100430002C23F35C002B05D0013BDBB217200F2BE4
:1004400000D9C0E62B22B15C17200F2900D9BAE6EB
:100450003868427E52B2002AFBDBF289307B0243CD
:10046000B068024309050A431B0413434246136163
:100470002A23F35C13750F2393751533F35C002B5C
:1004800012D0F38C1A4A1720934200D99BE64246B9
:100490009384328D80231B01D31815499BB28B4264
:1004A00000D990E64346DA84124B1B685B01E022D8
:1004B000D2001340104A516849011268D20E0A4313
:1004C000D2B213434246138500207CE6000400406C
:1004D00000080040B8020020691E0000DD1D000079
:1004E0002D32000008340000611F0000343300008A
:1004F000FF0F00002460800020608000002C00D0EE
:100500007FE7F27C002A0FD0F269802109018C4636
:1005100062442A4917208A4200D954E6326A62446A
:1005200026498A4200D94EE6244A1720F1699142B1
:1005300000DD48E6316A914200DD44E661E7F27C85
:10054000002A0FD0F269802189008C4662441C4940
:1005500017208A4200D936E6326A624418498A4234
:1005600000D930E6164A1720F169914200DD2AE6EB
:10057000316A914200DD26E643E7F27C002A0FD083
:10058000F269802109028C4662440E4917208A4292
:1005900000D918E6326A62440A498A4200D912E652
:1005A000084A1720F169914200DD0CE6316A914258
:1005B00000DD08E625E7172005E6C046FF0F00002E
:1005C000FF030000FFFF000070B52E4B1C6823687E
:1005D0001D7EEDB2EA0705D5E27ED20702D5A27EE6
:1005E000D20716D46B0708D5042322681376E37E5E
:1005F0009B0702D5A37E9B073CD4AB0708D50223FB
:1006000022681376E37E5B0702D5A37E5B0735D4B1
:1006100070BD01221A762268537E5BB2002BFBDB91
:1006200061698B1C6361538B9BB20B80238B013BF5
:100630009BB22383002B11D0637F002BD2D0226882
:10064000537E5BB2002BFBDB137B02210B43137346
:100650002268537E5BB2002BFBDBC3E7237F052BB5
:10066000C0D1002323770133226893752000A3684B
:100670009847B7E72000E3689847BEE72369200062
:100680009847C5E7B802002010B5264B9847264981
:100690000B8C072213409B002448185803781A40FB
:1006A0003F23CA540F33CA5CD2B203781B012049DE
:1006B000C91849881F4CE3185B88CB1A4361D307DC
:1006C0000FD501214E23184AD1543E3B4374037C7D
:1006D000DB0703D54368002B00D09847164B98479B
:1006E00010BD93070DD502214E230F4AD15400238C
:1006F0004374037C9B07F1D58368002BEED09847A9
:10070000ECE75307EAD504214E23074AD154483B6E
:100710004374037C5B07E1D5C368002BDED09847A8
:10072000DCE7C046D5170000004800416C010020FE
:10073000C002002080010020151800000023037073
:10074000437003228270C37003717047F8B5CE46C0
:10075000474680B505000E00454B9847454B1B7832
:10076000002B18D1444B5A6920210A435A61DA6997
:1007700010390A43DA61414B1A880E398A431A80CC
:1007800001221A803E4A5A633E4A9A633E4A1A80C0
:10079000384B01221A70364B9847364B5B68DA07A4
:1007A0000FD55B08012401221A420BD05B080134EB
:1007B000E4B2052CF8D1354B9847344B98471420B8
:1007C00051E000242B4A51680123A3400B4353609E
:1007D000137A013B13722D4B9847FF2CEDD02C70F0
:1007E000072398461C40254F38339946FC54013363
:1007F000FA5C02218A43FA540124FC541C4B9847AA
:100800002B78424613404A46BB543B692A789440B1
:10081000A3433B6132785201602313407278120285
:10082000F82149010A401343B2789205C021090416
:100830000A401343F178002904D007220A40082116
:100840000A4313433279002A01D0102213430B4A82
:1008500053640E4CA0470023AB612B789B000C4ADD
:100860009D50A04700200CBC90469946F8BDC0465C
:10087000D517000008000020000400400048004197
:10088000C002002080010020020F000015180000A7
:100890006C01002070B50400194B9847637C052B50
:1008A00008D0A3695B889BB2002B07D1154B9847F2
:1008B000172070BD134B98470520FAE74026124BCE
:1008C0001E60227807231A40104D3F216A54227877
:1008D0000F498A5C13404D22AB5405236374207882
:1008E00000010C4BC018A1693D3A0B4B9847AB5D1A
:1008F00002221343AB55034B98470020D9E7C0466B
:10090000D51700001518000000E100E00048004184
:10091000D0010020C00200202D320000F0B50A787E
:100920000388012632400124A343134303804B78FC
:10093000048803273B405B00062294431C43048049
:100940008D7804883D40ED0018239C432C4304809F
:10095000CA7803883A401202164C2340134303809E
:100960000B79048833409B02134A14401C430480D3
:100970004D7904883540ED02104B1C402C43048017
:100980008A790388324012030D4C234013430380BD
:10099000CB7907221A4003885203DB04DB0C134394
:1009A00003800B894380CB6843600B6983604B698C
:1009B000C360F0BDFFFCFFFFFFFBFFFFFFF7FFFF82
:1009C000FFEFFFFF427C0523052A0BD08369002B34
:1009D0000AD0DA68002A03D0DB68DA68002AFBD183
:1009E000D96000231800704781610023FAE70000F6
:1009F000F0B5CE46474680B583B005000C00160022
:100A000029600B681C209B0704D503B00CBC9046E2
:100A10009946F0BD0B681738DB07F6D408004D4B3C
:100A2000994698474C4A116A831C0127B8469F4053
:100A30003B000B43136201A9737E0B700E30C3B2EF
:100A40001F001800454B98473800454B9847707E6B
:100A50000021444B98472868C84707004249434B48
:100A60009847BF00424BFD5000232422AB54013273
:100A7000AB54EB84337E6B72102323602C68338974
:100A8000EB80337C2B7280236A46137000235370F3
:100A90006B4642469A7000236A46D370F069356A05
:100AA00000284BD06B46187002236A465370000C26
:100AB000C0B269462F4B9847002D44D06B461D703D
:100AC00002236A4653702D0CE8B26946294B9847B9
:100AD000B37E8022002B04D1274B9B789B07DB0F32
:100AE000DA012523F35C002B04D180239B04716978
:100AF000994202D180231B051A43206873687169EB
:100B00000B432421715C89070B432621715CC905C5
:100B10000B43034313432360728980235B00134319
:100B20006360B3895B00F28952041343727C134300
:100B3000327CD20313436362002066E70021200069
:100B40000E4B9847AEE7012120000C4B984705005B
:100B5000B4E7C046A10F000000040040691E000079
:100B6000DD1D0000950E0000ED0B0000DD0F000004
:100B700010030020611F000000200041E10E000072
:100B800010B5931C9B00C31859602424035D0121F8
:100B900091400B43DBB2035510BD028D0523002AA3
:100BA00001D0180070474B68C3620B8803850B881F
:100BB000C38405323123C254036802329A7500237C
:100BC000EFE7028D0523002A01D0180070474B681B
:100BD000C3620B8803850B88C38405323123C2545A
:100BE000036802329A750023EFE7000070B58000B9
:100BF0009B4BC45825682523E35C2422A65C1E4039
:100C00002B7E9B0700D495E0E38C9BB2228D934210
:100C10000DD03023E35C002B09D13122A354E384AF
:100C20002385B3070BD523692000984707E0E38CA1
:100C30009BB29A4203D03023E35C012B22D06A8B13
:100C400043231A4204D01022123BE254B30624D4A8
:100C5000637A002B25D16B8B1B074AD501223023E9
:100C6000E254730738D4E38C9BB2002B38D125684B
:100C70007C4B984700236B838023DB026B607A4BAD
:100C8000984718E000233122A354E3842385F30717
:100C9000D5D5E36820009847D1E7236A200098471C
:100CA000D6E725686F4B984700236B838023DB02D0
:100CB0006B606D4B984723681A7ED20701D50122DD
:100CC0001A7602221A762468664B984700236383BB
:100CD0006360654B984770BD636920009847C2E721
:100CE0002568604B984700236B836B605E4B984789
:100CF000E1E700223023E25433070ED4E38C9BB2A9
:100D0000002B0ED12568574B984700236B83802317
:100D1000DB026B60544B9847CDE7A36920009847EE
:100D2000ECE725684F4B984700236B836B604E4B75
:100D30009847C0E72B7EDB072ED501232B760433A3
:100D40002B752033E35C5B0705D42523E35C082B7C
:100D500001D002232B753123E35C1E2BBBD0312342
:100D6000E35C102BB7D000233122A354E384238506
:100D7000B30703D53023E35C002B09D0F307AAD5D2
:100D80003023E35C012BA6D1E36820009847A2E75B
:100D90002369200098479EE72B7E5B079BD5238D18
:100DA000002B1ED03022A25C012A13D0E38C9BB210
:100DB000002B00D18FE73023E35C002B44D0E36AA3
:100DC0005A1CE2621B78DBB22822AB54238D013B14
:100DD000238580E7E28C92B29342E7D26B8B5B076C
:100DE000E4D500232385E3843033E35C002B17D163
:100DF0001C4B984700236B838023DB026B601A4BEC
:100E000098476A6880239B0213436B601E2231233C
:100E1000E254F30600D45EE7E369200098475AE7FE
:100E2000104B984700236B838023DB026B600E4BD3
:100E300098476A6880239B0213436B60312300222A
:100E4000E2542D3B2B7546E7E26A531CE3622823EC
:100E5000EB5CDBB21370238D013B23853BE7C0467F
:100E600010030020D51700001518000010B5490820
:100E700040230024814202D2180010BD1C00091A30
:100E8000631C9BB28842F9D94023FF2CF4D814800C
:100E90000023F1E710B582B004000E4B1B78002B45
:100EA00007D0002905D10B4B5B78834210D01D2061
:100EB0000CE001A90C700D20074B98470D20074B43
:100EC0009847044B5C7001221A70002002B010BDDC
:100ED0000020FBE7D8010020691E0000DD1D000096
:100EE000204B984217D0204B984224D01F4B984259
:100EF00001D000207047012907D000292BD00229FA
:100F000005D0032905D00020F4E71948F2E7194875
:100F1000F0E71948EEE7012907D000291DD0022982
:100F200005D0032905D00020E4E71448E2E714487F
:100F3000E0E71448DEE7012907D000290FD0022995
:100F400005D0032905D00020D4E70F48D2E70F4889
:100F5000D0E70F48CEE70F48CCE70F48CAE70F4865
:100F6000C8E7C046000C00420010004200080042E2
:100F7000030005000300060003000700020017003D
:100F800003001E0003001F000300170003001000F1
:100F900003001900030004000200160003001600FD
:100FA00030B585B001AA0B4B32CB32C20300019A97
:100FB00082420CD0029A824207D00020039A9A42C1
:100FC00001D005B030BD023002E0012000E0002079
:100FD000C0B2F6E7583400007047000030B50A4B45
:100FE0001B78002B0CD1094C094D2560094B0022C0
:100FF0001A6065605A60A5609A600132024B1A70EF
:101000008000024BC15030BDDA010020DC0100201D
:10101000D90F00001003002010B582B001AC0923E5
:101020002370013363700133A370024B984720563D
:1010300002B010BDA10F000010B5024B1B680020CC
:10104000984710BDDC01002010B5024B5B68012001
:10105000984710BDDC01002010B5024B9B680220B0
:10106000984710BDDC010020F0B58BB005000C00E6
:10107000160029600B681C209B0701D50BB0F0BD42
:101080000B681738DB07F9D408006F4B98476F4A95
:10109000116A871C0123BB400B43136209A9242753
:1010A000F35D0B700E30C3B201931800684B984784
:1010B0000198684B9847F05D0021674B984733785B
:1010C000012B3FD03378002B03D123680822134330
:1010D00023602B000C3329002831002204C38B42EB
:1010E000FCD10023EB62AB620024AB862B86363347
:1010F000EC540133EC540133EC54353B6B722C71DE
:101100002868514B984707005449554B9847BF00F2
:10111000544BFD502F6804AB80221A705C707F3AEC
:101120009A70DC703378002B02D1002204AB9A70E5
:10113000B36A0593F36A0693336B0793736B089353
:1011400000240BE023680C2213432360BAE7380025
:10115000454B98470AE00134042C10D0E1B2A300BB
:1011600002AA0C201218D0580028F0D0431CF2D04C
:1011700004A90870000CC0B23C4B9847EBE73378E9
:101180006B71337CAB71B37CEB71337D2B720022BE
:1011900002ABDA803378012B12D03378002B26D1C2
:1011A000B069B28B7B6AF17F0904B47F2143194394
:1011B00079622023F35C002B1BD040231A4318E0F4
:1011C0002868214B98470E30C0B2294B9847010040
:1011D00002AB9A1DB069274B984703001720002BDC
:1011E00000D04BE702AB06331B783B73D5E70022F8
:1011F00000207368B1680B43F1680B430343317CF3
:101200000A43717C002903D11B498978890701D5DC
:1012100080210B43B17C002902D0802189020A433E
:10122000F17C002902D0802189000A43317D002908
:1012300002D0802189010A4339680B433B607B68F7
:101240001A437A60002019E7A10F00000004004053
:10125000691E0000DD1D0000950E00007D120000DB
:10126000DD0F000010030020E10E0000611F0000F0
:10127000851E00006D0E000000200041F8B58000C2
:10128000854BC45826683723E35C3622A75C1F4091
:10129000337EB57D1D40EB072ED56379012B25D01C
:1012A000002B29D1637A002B26D02168E26A1378BB
:1012B000DBB2501CE062A079012800D169E09BB24A
:1012C000DB05DB0D8B62A38E013B9BB2A386A38E55
:1012D0009BB2002B10D101333375637A012B0BD1F4
:1012E000E379002B08D10233B37505E0637A002B54
:1012F0003ED0637A002BD8D16B0711D5738B5B0777
:1013000051D5637A012B08D01E223823E254353B95
:101310006372023333753B0741D4B36A042373838A
:10132000AB0715D56379002B0ED107333375053B19
:101330003376013363720023A38623863833002279
:10134000E254FB0600D57FE06379012B00D17FE0FA
:101350002B0708D56379002B05D108333375337615
:10136000BB0600D58AE06DB2002D00DA8AE0F8BD38
:101370004A4B1B88B362638E013B9BB26386638ECC
:101380009BB2002B01D1013333756379012BB0D0AF
:1013900086E75078000203430232E26290E72000C1
:1013A000A3699847B9E7637A012B27D023689B6A22
:1013B000DB05DB0DDAB2A16A0A70A26A511CA162D8
:1013C000A179012933D0238E013B9BB22386238E42
:1013D0009BB2002BA4D100223833E254343B337546
:1013E000637A022B29D0637A002B00D098E7BB07E1
:1013F00000D495E720002369984791E723689B6A0A
:10140000638E013B9BB26386638E9BB2002B00D040
:1014100086E70433337500223433E254353B63727C
:10142000FB0700D47CE72000E368984778E71B0AB5
:101430005370A36A0133A362C5E77B0700D46FE74B
:101440002000636998476BE72000E36998477BE7D2
:10145000637A012B00D086E7E379002B00D082E786
:10146000023333750133637200223533E254FB07D4
:1014700000D46DE72000E368984769E72000236AFD
:10148000984770E78023337533767B0600D46EE788
:10149000636A200098476AE7100300201C030020BD
:1014A000064B984208D0064A0023904201D018000B
:1014B00070470133DBB2FAE70023FBE70018004274
:1014C000001C0042F0B585B004000D0016000800B5
:1014D000824B9847070003AB12221A705A7002AB76
:1014E0002E321A8040325A800023A360E3602361C9
:1014F0006361237663768200794BD4502560B3789C
:10150000082B06D023712B880520DB0705D505B0F5
:10151000F0BD1720FA07FAD4F4E7EB7B1730DB06AF
:10152000F5D42B889B07F2D4337C002B00D07AE0D3
:10153000337F002B00D082E06A49086A7A0002AB50
:10154000D35A03430B62B378082B00D187E033787A
:101550006A46137003ABDF5D69463800624B9847FB
:101560003800624B98473189B3880B43B178B27920
:10157000114319437378002B02D080231B011943B8
:101580002268D37B5BB2002BFBDB2980717B4B1E77
:1015900099418900B37B002B01D0012319432268B4
:1015A000D37B5BB2002BFBDBFF232B71002905D023
:1015B0002268D37B5BB2002BFBDB6971B17AF37AD3
:1015C000002B01D010231943337B002B01D02023A3
:1015D00019432268D37B5BB2002BFBDBA971226825
:1015E000D37B5BB2002BFBDB2379042B3FD0082B92
:1015F0005ED01720002B00D089E7D37B5BB2002B95
:10160000FBDB338D2B822268D37B5BB2002BFBDBB1
:10161000738D2B832268D37B5BB2002BFBDBB38DF6
:101620006B83002073E701A901238B700022CA702D
:10163000327E0A704B70307D2D4B984778E701A9B8
:1016400001238B700022CA702432B21812780A70FB
:101650004B701F33F3181878254B98476CE7086ACE
:101660007A1C520002ABD35A03430B626FE7D37B61
:101670005BB2002BFBDB2823F35C2B742268D37B4B
:101680005BB2002BFBDB2923F35C2B752268D37B39
:101690005BB2002BFBDB2A23F35C2B762268D37B27
:1016A0005BB2002BFBDB2B23F35C6B7600202EE779
:1016B000D37B5BB2002BFBDBB36A2B612268D37B4D
:1016C0005BB2002BFBDBF36AAB612268D37B5BB2BE
:1016D000002BFBDB336BEB61002018E7A11400004B
:1016E0002003002000040040691E0000DD1D0000F2
:1016F000611F0000931C9B001950022A09D0032A85
:101700000CD0012393401A00037E1343037600207C
:101710007047037E102213430376F8E7037E2022EE
:1017200013430376F3E7000070B58000164BC458EE
:1017300023689D7B227E637E13401D40EB0706D409
:10174000AB070BD4EB0610D4AB0615D470BD20004C
:10175000A3689847012322689373F1E72000E368A8
:101760009847022322689373ECE720002369984787
:10177000102322689373E7E7200063699847236882
:1017800020229A73E2E7C0462003002010B5002013
:10179000014B984710BDC0462917000010B5012025
:1017A000014B984710BDC0462917000000B583B013
:1017B00001AB80221A700A785A704A789A708A7837
:1017C000DA701900014B984703B000BD611F00009B
:1017D000704700000C4B1B68002B06D1EFF3108301
:1017E000002B07D00022094B1A70074A13680133F7
:1017F0001360704772B6BFF35F8F0022044B1A70FC
:101800000132024B1A70F0E7E8010020EC010020E1
:1018100014000020084B1A68013A1A601B68002B5C
:1018200009D1064B1B78002B05D00122044B1A70FE
:10183000BFF35F8F62B67047E8010020EC01002023
:101840001400002010B5082803D880001B4B1B583B
:101850009F46002030E01A4B18692DE0194B1B6A97
:101860009B059B0F1848D84026E0154B586923E08C
:10187000134B1B6800209B071ED512491022CB6812
:101880001A42FCD00E4B1B685B0701D40F4813E0D3
:1018900000200F4B98470A4B9B681B041B0C5843B6
:1018A0000AE05023074AD35C00205B0704D5044BB1
:1018B000D86801E08020000210BDC04664340000FA
:1018C000F00100200008004000127A00006CDC02E9
:1018D000851E000070B50C490B6A04788578407845
:1018E0000122104080014026B34303432A40D20125
:1018F0008020834313430322224012020348034003
:1019000013430B6270BDC04600080040FFFCFFFFA0
:10191000F0B5CE46474680B5194B99469B6941784C
:101920008C4605780679C77844798078012108408B
:10193000800004229343034360460840C000043201
:10194000934303433800084080014027BB430343CF
:1019500030000840C0018026B34303430720054000
:101960002D02084803402B43214009030648034049
:101970000B434A4693610CBC90469946F0BDC04665
:1019800000080040FFF8FFFFFFEFFFFF10B5037AEC
:101990009B061B0C42899205920D134318494B601C
:1019A0008379C2791343428884882243134342785F
:1019B000D20113430B600378042B11D0202B0ED1DE
:1019C000037B9B06028A1343C28912040D490A4015
:1019D00013430B4A936011680B4B0B43136010BD0C
:1019E000037B9B06028A1343C289120405490A40FD
:1019F0001343034A9360136804210B431360EEE71B
:101A0000F00100200000FF0324040000082803D890
:101A10008000254B1B589F46172044E0234A136A39
:101A200002210B43136200203DE0204A936902210A
:101A30000B439361002036E01C4A138A02210B43BA
:101A4000138200202FE0194A938A02210B439382CC
:101A5000002028E016490B68022213430B60134B49
:101A60009A8419000E32CB681A42FCD0104A916851
:101A70000E4BD96252689A6200229A841900103281
:101A8000CB681A42FCD00A4B1B689BB2074A93846E
:101A9000002008E0054944228B5C022003438B545C
:101AA000002000E00020704788340000000800405B
:101AB000F0010020F0B5CE46474680B58DB0C22279
:101AC000D2004D4B9A604D494B681E2293431C3AFD
:101AD00013434B6001AB1A700024494DE0B201A9D9
:101AE000A8470134182CF9D1464C2368DB0442493D
:101AF0008A695B0E1B044448024013438B610AA8A9
:101B00000123437083700025C57003710633037091
:101B100045713E4B984704203D4B984705AB00224A
:101B20005D809D809A71DA713F2159813B3919702E
:101B30005A7023689B0E3F2B5BD005A80372B72316
:101B4000DB000382072303733833C381314B98478B
:101B500004A8002545700126867005702E4B984715
:101B600006202B4FB8472D4B984701AC0296657065
:101B7000257265720423237021000120284B9946A9
:101B800098470120274B9846984766606570062362
:101B900023702572657221000320C8470320C047C7
:101BA000267021000020164B984700201E4B9847B6
:101BB0000720B8471049D022CB681340D02BFBD167
:101BC0001A4A0023137253729372D37201A901222D
:101BD0004A604B700B724B7207330B700020104B36
:101BE000984700200F4B98470DB00CBC9046994683
:101BF000F0BD203BA1E7C046000800400040004186
:101C0000691E000024608000FFFF80FF11190000A2
:101C10000D1A00008D190000D5180000311C0000BD
:101C2000551C00000D1D0000DD1D000000040040DB
:101C3000064A936908210B4393610122044B1A70F1
:101C400019000B781342FCD17047C04600040040D5
:101C5000000C004070B5060004000D782D0205430D
:101C60004B78002B02D08023DB021D434B7A002BE4
:101C700002D080231B031D434868012810D9431E4E
:101C8000184234D1022830D90223002201325B00ED
:101C90009842FBD812023243140080235B031D4399
:101CA0000B7A002B02D080239B031D43134A5378E9
:101CB0005BB2002BFBDB124B9847124B1E700F4A96
:101CC00053785BB2002BFBDB0C4B9C601A00537803
:101CD0005BB2002BFBDB094A5368802149020B40B1
:101CE0001D435560084B984770BD0022D2E704029F
:101CF000344380239B021D43D2E7C046000C0040C2
:101D0000D5170000080C00401518000010B504009D
:101D10000B4A53785BB2002BFBDB0A4B98470A4B0C
:101D20001C70074A53785BB2002BFBDB044A5168F6
:101D300080235B020B435360044B984710BDC046A1
:101D4000000C0040D5170000040C004015180000DE
:101D500070B504001A4A53785BB2002BFBDB194BB9
:101D60009847194B1C70164A53785BB2002BFBDB6B
:101D7000134E7068C004C00E144B98470500124BF8
:101D80001C707668F602F60F114B1C700C4A5378E3
:101D90005BB2002BFBDB0A4B9C682402240C0D4B2E
:101DA0009847002E07D1012C07D9210028000A4BA3
:101DB0009847050001E00134E540280070BDC046A9
:101DC000000C0040D5170000040C0040451800002E
:101DD000080C004015180000E52E000010B50400A6
:101DE000064B9847064B1C70064A53888021C90150
:101DF0000B435380044B984710BDC046D5170000D5
:101E0000020C0040000C00401518000010B5040042
:101E10000F4B98470F4B1C700F4A53881B05180F28
:101E200053880E490B40538053880D490B40538013
:101E300011008022D2014B881342FCD106494A8806
:101E400003020648024013434B80064B984710BDDF
:101E5000D5170000020C0040000C0040FFF0FFFF0F
:101E6000FFBFFFFF1518000010B50C7824020443D3
:101E7000024B9847A4B2024B5C8010BD0D1E0000BF
:101E8000000C004010B50400064B9847064B1C7030
:101E9000064B5C882405240F054B98472000054B12
:101EA000984710BDD5170000020C0040000C004000
:101EB00015180000511D000030B5D378002B35D126
:101EC0001378802B29D01B06802464022343547886
:101ED0000225AC4306D19478002C20D18024A402A2
:101EE000234341605478013C012C1CD90D042D0C76
:101EF000A024E4052C431C4384620D0CD02424064A
:101F00002C431C438462D478002C22D15B031CD563
:101F10009378012B1ED0416117E00023D7E7C0243E
:101F2000E4022343DDE70D4C2340DFE741600C046E
:101F3000240CA023DB05234383620C0CD0231B0657
:101F400023438362D378002B03D15378013B012BC9
:101F500002D930BD8161F8E78160FAE7FFFFFBFF3E
:101F600010B50A00C1090023002904D14309DB018F
:101F700005498C4663441F242040012181401800FC
:101F8000024B984710BDC04600440041B91E0000F6
:101F90007047000010B5054B9847054B9847054B17
:101FA0009847054B9847054B984710BDB51A000058
:101FB000D1170000911F0000911F0000911F000029
:101FC000FEE7000010B5264A264B9A4211D01A00AF
:101FD000254B9A420DD2254A03339B1A9B080133A5
:101FE0009B0000221F481E498C58845004329A429C
:101FF000FAD11F4A1F4B9A420AD2D3431D495B189C
:1020000003218B4304339B18002102C29342FCD16D
:10201000194AFF21194B8B439360FD3990235B00D4
:10202000174AD150174B9A7B2E318A4320210A43FD
:102030009A739A7B0C218A4308210A439A739A7BEC
:1020400003218A4302210A439A730F4A536880216D
:102050000B4353600D4B98470D4B9847FEE7C04626
:10206000D0340000000000204401002004000020C3
:10207000500100200805002000ED00E000000000F5
:10208000007000410048004100400041D131000093
:10209000752E00000300064A1268002A04D0044A84
:1020A0001068C318136070470249014A1160F6E7CF
:1020B000080200200809002070B50A4B1B78002B8D
:1020C0000FD00022074B1A70074C01212000074D4A
:1020D000A847200012300221A84720002430032105
:1020E000A84770BDAA020020A9040020752B00009B
:1020F0000122014B1A7070471A02002000B583B00C
:1021000001A901234B7000228A700B700420024B3E
:10211000984703B000BDC046AD170000F8B5CE46E5
:10212000474680B50024164B9846164E164B9946E6
:1021300009E01348154B9847C8204000144B9847B6
:102140000134082C18D02500802323414246137007
:102150000321104FCB00F018405DC043507048463B
:10216000C018405DC0439070FB185B5DDB43D370CB
:1021700003320139EED2DCE70CBC90469946F8BD3B
:102180000C02002088040020E0040020092900003F
:102190002D0100006804002010B58EB001AA0023B4
:1021A000002193711381002050709172117391730B
:1021B00051731174536193611177136253621385E4
:1021C000538593850133D37203339370013B1370AE
:1021D000A023DB009380FF212923D154074C084919
:1021E0002000084B98472268D37B5BB2002BFBDBB7
:1021F000138802210B4313800EB010BD280300206A
:1022000000180042C514000010B50C4C00220C4907
:1022100020000C4B984720680B4B98470B4B1A5CDF
:102220001F231340012211009940094B1960637E5E
:1022300001210B43637623685A7310BD28030020E5
:10224000F1200000F5160000A1140000AC340000DD
:1022500000E100E010B50320014B984710BDC046D7
:10226000D52D000010B5012802D0022803D010BDE2
:10227000024B9847FBE7024B9847F8E7AD25000073
:10228000B920000010B50222124B1A70124B1B78B5
:10229000022B09D0114B1B78002B0ED0012B0FD035
:1022A0000C4B1A780C4B1A700D4B1B78002B0AD173
:1022B000084B18780B4B984710BD0B4B9847EFE72E
:1022C0000A4B9847ECE70022054B1A70084B9847D9
:1022D000EEE7C0461902002015000020AB020020E6
:1022E0001A0200206522000055220000F12500009E
:1022F0001D21000010B5024B9847024B984710BDB6
:1023000099210000092200000122054B1A700023C8
:10231000044805495A5CC2540133372BFAD170473F
:10232000AA020020A80400201C02002010B50A4BBD
:102330001B78002B09D1094A1178094B1970517883
:10234000597091789970D278DA700649044B4B60D5
:10235000054B984710BDC046AC0200200005002088
:10236000540200204C030020C30B000010B50449A8
:1023700037230B80034B4B60034B984710BDC0467F
:10238000440300201C0200209B0B0000014B1A7824
:102390005B7870470005002070B58AB000226B465C
:1023A0001A7080239B03019301235B4269460B81D2
:1023B00000234A81CA810B744B7405920B764B76CD
:1023C0008B7624228B54012425236A46CC54013376
:1023D000CC54153B8B81104B0793104B0893104E38
:1023E00010493000104B9847356828000F4B98472C
:1023F0001F23184084400E4B1C6031680322CB69B8
:102400001A42FCD12B68022213432B600232094B83
:102410001A800AB070BDC046030016000300170002
:102420005403002000100042F109000019100000C0
:1024300000E100E04C030020F8B5104C02221049E6
:102440002000104EB0472525635D042213436355D9
:10245000022723689F75013A0B492000B047635D4E
:1024600008221343635523689F75073A07492000E4
:10247000B047635D022213436355F8BD5403002047
:102480002D230000810B00006D23000009230000B4
:1024900030B5010000231A4C1A4D02E001330D2B18
:1024A00009D0D8B2E25CD2B28A42F7D8EA5CD2B2A2
:1024B0009142F3D200E00020134B1B7883421ED0E0
:1024C000072300220E4D0F4CAB54191DC9B2A15465
:1024D00001321233DBB20D2AF6D1431EDA009B180B
:1024E0005B000B33DBB2064A1354431CDA009B1823
:1024F0005B000733DBB2034A1354034B187030BD43
:10250000B8030020980300205902002030B50100D4
:1025100000231A4C1A4D02E001330D2B09D0D8B21A
:10252000E25CD2B28A42F7D8EA5CD2B29142F3D2EC
:1025300000E00020134B1B7883421ED007230022AB
:102540000E4D0F4CAB54191DC9B2A15401321233B8
:10255000DBB20D2AF6D1431EDA009B185B000B3369
:10256000DBB2064A1354431CDA009B185B000733A6
:10257000DBB2034A1354034B187030BD88030020AC
:10258000A80300205802002010B5054C2078C0B2E6
:10259000044B98476078C0B2034B984710BDC046C3
:1025A00000050020912400000D25000010B5014B0E
:1025B000984710BD8925000070B507220023084EFA
:1025C000084D094C0948F254111DC9B2E954E254AE
:1025D000C15401331232D2B20D2BF4D170BDC046BA
:1025E00088030020A8030020B803002098030020DF
:1025F00010B5014B984710BDB925000010B58CB03F
:102600000220184B9847184B18606846174B98479C
:1026100001236A465370C0239B0053800423137325
:10262000C0235B01D38130231371114C1149200069
:10263000114B98472268537E5BB2002BFBDB802155
:1026400009020E4B19600F2393751376137802213C
:102650000B431370064B1A68537E5BB2002BFBDBF7
:102660000CB010BD193200005C02002059010000BE
:10267000C803002000200042A101000000E100E0AA
:1026800010B5014B984710BDFD25000030B52D4B0E
:1026900019684B7E5BB2002BFBDB0B691F22934357
:1026A000184308614B7E5BB2002BFBDB4B7E5BB2B9
:1026B000002BFBDB0B7B022213430B734B7E5BB2C5
:1026C000002BFBDB01200425022401E010420AD18B
:1026D0000B7EDBB202001A401D4200D022431C4296
:1026E000F4D02A43F2E70A7ED2B201231340500706
:1026F00001D502200343920701D504221343DB07CF
:1027000003D4114B1B68188830BD4B7E5BB2002B85
:10271000FBDB0D4B1B684A8B1A800A4B196801239F
:102720000B760A7ED2B21340500701D50220034334
:10273000920701D5042213435B07E2D502230B76EF
:10274000DFE7C046C80300205C02002070B50C0023
:10275000334B1B78002B1FD00022314B1A7080B2F4
:10276000304B18808CB2304B1C80304B1880304B73
:102770001C802C4B1A882D4B1B88D31AD9175B1839
:102780004B40022B22DD2B4B1B8801339BB2032BCA
:1027900014D8284A138020E0224D2A88D3009B18A1
:1027A0001818254E0A21B04728801F4D2B88D800C5
:1027B000C01800190A21B0472880DAE700211D4B14
:1027C0001980FF231A40194B1A8006E0FF231A4094
:1027D000164B1A800022174B1A80134B1A88144B81
:1027E0001B88D31AD9175B184B40022B10DD134BF3
:1027F0001B8801339BB2032B02D8104A13800EE0D2
:1028000000210E4B1980FF231A40094B1A8006E065
:10281000FF231A40064B1A800022084B1A8070BD15
:102820001600002064020020660200206C020020D6
:102830006E02002060020020F92F000062020020DA
:1028400070B5204B1B780133DBB2C82B31D81D4A41
:10285000137004201C4CA04705000520A0471B4C0A
:1028600001232370C1B2E8B2194B9847194B19885C
:10287000194A08110F231840107019405170174958
:1028800008880111194091700340D370144D10262F
:10289000AE61144B98476E6100232370124B1B8866
:1028A00001339BB2FA225200934206D00E4A1380A3
:1028B00070BD0022034B1A70CBE700220A4B1A802E
:1028C000F6E7C046680200208D260000AC0200201A
:1028D0004D2700006C020020000500206E02002041
:1028E000004400418D2300006A02002070B5044CB2
:1028F000042565610320034B9847A56170BDC04660
:10290000004400412D01000070B5084B9847084B6A
:102910009847084C80256D0465610120064EB0473C
:10292000064B98470120B047A56170BDA52900005E
:10293000ED280000004400412D010000B9290000ED
:10294000F0B583B001AC012565700027A770257034
:1029500021000220074EB0476570A7702570210046
:102960001820B0476570A770257021000320B0477C
:1029700003B0F0BDAD17000070B5044B9847044C90
:102980000825A561034B9847656170BD412900008A
:1029900000440041ED2800000122014B1A707047ED
:1029A000AD02002000230349C25CCA5401330D2B41
:1029B000FAD170475804002010B50548054B9847D8
:1029C000054A1378002BFCD00022034B1A7010BD6F
:1029D0000004002095080000AD02002070B58EB004
:1029E00001246B461C7000251D745D74DC741D751C
:1029F0000C22002106A8194B98478023DB05019380
:102A000080235B0502930395154B0A93154B0B939B
:102A100001235B420C930D936B469D74124B0693FE
:102A2000032224236946CA54104E6A4610493000D6
:102A3000104B9847356828000F4B98471F231840C4
:102A400084400E4B1C603268D369002BFCD12B688C
:102A5000022213432B600EB070BDC0463F3200000F
:102A600002001E0002001F00A02526001C040020FA
:102A7000000C0042691000001910000000E100E0A5
:102A800070B586B068461A4B984704236A4653705F
:102A90000225023B9370174C69462000164B98475D
:102AA00001226B461A70002369464B708B70CB7005
:102AB0000A718B71CB7105934B710D330B810F4BE9
:102AC0000D3303930E4B04930E4E30000E4B98477C
:102AD000310020000D4B98470D4BA360237C2B4306
:102AE000237422780B498B5C2B438B5406B070BD4A
:102AF0003D070000000400204D070000580400209E
:102B0000280C0042F00300201D090000C509000048
:102B100099290000D001002010B5024B9847024BC4
:102B2000984710BDDD290000812A000082B06B4665
:102B3000D871DA79D979120909010A43D2B2DA7166
:102B4000D879D97980083322024089003320814323
:102B50000A43D2B2DA71D879D979400855220240B5
:102B60004900552081430A43D2B2DA71D879C0B204
:102B700002B07047F0B5DE4657464E464546E0B5D2
:102B800083B00190022967D0032909D0012900D11F
:102B9000A4E003B03CBC90469946A246AB46F0BDCB
:102BA000019F03267E4B98467E4B9B463F24BD7873
:102BB0002D02787800040543387800060543731E1B
:102BC0009A46A80EC047DA4453461872280D204092
:102BD0008000C04753461874A80B2040C047B24637
:102BE000DA4453461872280A20408000C0475346F2
:102BF000187403370236092ED9D1019C09340126F5
:102C0000674B9846674F3F239946A5782D02607819
:102C100000040543207800060543731E9A46A80E5B
:102C2000C0475346F854280D4B4618408000C04713
:102C30005346FB181876A80B4B461840C047B855AA
:102C4000280A4B4618408000C047BB191876033449
:102C50000236072ED9D19CE701980321524E3F2519
:102C600083781B024278120413430278120613433E
:102C70004F1E9A0EF7193A721A0D2A4092003A74B2
:102C80009A0B2A4077183A721B0A2B409B003B7420
:102C9000033002310929E3D1019C09340122424861
:102CA0003F25A3781B02617809040B4321780906AC
:102CB0000B43561E990E8155190D2940890086191E
:102CC0003176990B294081541B0A2B409B008118B7
:102CD0000B7603340232072AE3D15AE7019E03251B
:102CE0002F4F324B9A463F24B078000273781B0472
:102CF000184333781B06184383466B1E9946800E93
:102D0000B847D1444B4618725B46180D20408000EE
:102D1000B8474B4618745B46980B2040B847A94605
:102D2000D1444B4618725B46180A20408000B847D1
:102D30004B46187403360235092DD5D1019C093450
:102D40000125174F194E3F239846A078000263785B
:102D50001B04184323781B06184381466B1E9A46B2
:102D6000800EB8475346F0544B46180D4346184062
:102D70008000B8475346F31818764B46980B4346E5
:102D80001840B84770554B46180A43461840800013
:102D9000B8477319187603340235072DD5D1F8E6F4
:102DA0002D2B000088040020E0040020680400208F
:102DB00070B5064D01212800054CA04703212800CD
:102DC000A04702212800A04770BDC046180000207F
:102DD000752B000010B502281CD00ED9032824D072
:102DE000042816D101211648164CA0470321164885
:102DF000A04702211548A0470BE0012809D1012175
:102E00001348104CA04703211248A0470221124842
:102E1000A04710BD012111480A4CA04703211048CA
:102E2000A04702210F48A047F3E701210E48054CB7
:102E3000A04703210D48A04702210D48A047E8E71D
:102E400098020020752B0000B800002068000020C8
:102E5000CC0000207C0000202C000020700200200C
:102E6000900000204000002084020020A4000020E8
:102E70005400002070B50E4B98470E4B98470E4BF0
:102E800098470E4B98470E4B98470E4B98470E4B62
:102E900098470E4B98470E4B98470E4B9847012288
:102EA0000D4B1A700D4D0E4CA847A047FCE7C046CD
:102EB000951F0000ED00000081260000992300000E
:102EC00039240000B12D0000F5220000FD20000093
:102ED00079290000192B0000AB02002041280000D6
:102EE00085220000002243088B4274D303098B42E1
:102EF0005FD3030A8B4244D3030B8B4228D3030CCA
:102F00008B420DD3FF22090212BA030C8B4202D36B
:102F10001212090265D0030B8B4219D300E0090A93
:102F2000C30B8B4201D3CB03C01A5241830B8B429C
:102F300001D38B03C01A5241430B8B4201D34B0385
:102F4000C01A5241030B8B4201D30B03C01A5241EA
:102F5000C30A8B4201D3CB02C01A5241830A8B426F
:102F600001D38B02C01A5241430A8B4201D34B0258
:102F7000C01A5241030A8B4201D30B02C01A5241BC
:102F8000CDD2C3098B4201D3CB01C01A5241830970
:102F90008B4201D38B01C01A524143098B4201D3AA
:102FA0004B01C01A524103098B4201D30B01C01AD5
:102FB0005241C3088B4201D3CB00C01A524183084F
:102FC0008B4201D38B00C01A524143088B4201D37C
:102FD0004B00C01A5241411A00D2014652411046DC
:102FE0007047FFE701B5002000F0F0F802BDC046D1
:102FF0000029F7D076E7704703460B437FD40022C1
:1030000043088B4274D303098B425FD3030A8B427C
:1030100044D3030B8B4228D3030C8B420DD3FF22E6
:10302000090212BA030C8B4202D31212090265D0B4
:10303000030B8B4219D300E0090AC30B8B4201D367
:10304000CB03C01A5241830B8B4201D38B03C01AAE
:103050005241430B8B4201D34B03C01A5241030B25
:103060008B4201D30B03C01A5241C30A8B4201D3D6
:10307000CB02C01A5241830A8B4201D38B02C01A81
:103080005241430A8B4201D34B02C01A5241030AF8
:103090008B4201D30B02C01A5241CDD2C3098B42DD
:1030A00001D3CB01C01A524183098B4201D38B015A
:1030B000C01A524143098B4201D34B01C01A5241FD
:1030C00003098B4201D30B01C01A5241C3088B4242
:1030D00001D3CB00C01A524183088B4201D38B002D
:1030E000C01A524143088B4201D34B00C01A5241CF
:1030F000411A00D201465241104670475DE0CA0FA6
:1031000000D04942031000D34042534000229C4665
:1031100003098B422DD3030A8B4212D3FC2289016F
:1031200012BA030A8B420CD3890192118B4208D345
:10313000890192118B4204D389013AD0921100E0A7
:103140008909C3098B4201D3CB01C01A52418309BB
:103150008B4201D38B01C01A524143098B4201D3E8
:103160004B01C01A524103098B4201D30B01C01A13
:103170005241C3088B4201D3CB00C01A524183088D
:103180008B4201D38B00C01A5241D9D243088B42E3
:1031900001D34B00C01A5241411A00D20146634686
:1031A00052415B10104601D34042002B00D54942EA
:1031B000704763465B1000D3404201B5002000F029
:1031C00005F802BD0029F8D016E770477047C046E1
:1031D00070B500260C4D0D4C641BA410A64209D1FD
:1031E000002600F065F90A4D0A4C641BA410A642A3
:1031F00005D170BDB300EB5898470136EEE7B30038
:10320000EB5898470136F2E7BC340000BC340000AC
:10321000BC340000C034000010B5034B0100186836
:1032200000F016F810BDC046E0000020002310B5E5
:103230009A4200D110BDCC5CC4540133F8E70300BE
:103240008218934200D1704719700133F9E70000EA
:10325000032370B5CD1C9D43083506000C2D1ED2EE
:103260000C25A9421DD8300000F062F8254A1468E8
:103270002100002919D1244C2368002B03D13000F0
:1032800000F044F820602900300000F03FF8431CB3
:103290002CD10C233000336000F04BF803E0002DFC
:1032A000DFDA0C233360002070BD0B685B1B1AD47F
:1032B0000B2B03D90B60CC18256003E08C420ED198
:1032C00063681360300000F034F8200007220B30F0
:1032D000231D9043C31AE7D05A42E250E4E74B68FB
:1032E00063600C00EEE70C004968C2E70323C41CCE
:1032F0009C43A042E0D0211A300000F007F8431CA4
:10330000DAD1C6E7B0020020B4020020002370B575
:10331000064C050008002360FEF7BCFE431C03D1E9
:103320002368002B00D02B6070BDC0460405002030
:10333000704770476A030000B6050000B60500003C
:10334000B6050000B6050000B6050000B605000091
:10335000B6050000B6050000B6050000B605000081
:10336000B6050000B6050000B6050000B605000071
:10337000B605000052030000B6050000B6050000C7
:10338000B6050000B6050000B6050000B605000051
:10339000B6050000B6050000B6050000B605000041
:1033A000B6050000B6050000B6050000B605000031
:1033B000B605000062030000B6050000B605000077
:1033C000B6050000B6050000B6050000B605000011
:1033D000B6050000B6050000B6050000B605000001
:1033E000B6050000B6050000B6050000B6050000F1
:1033F000B60500005A030000720300003A03000003
:103400004A03000042030000020000000300000025
:103410000400000005000000060000000700000096
:103420000E0000000F0000000A0000000B0000006A
:10343000FFFF0000FFFF0000FFFF0000FFFF000094
:10344000FFFF0000FFFF0000FFFF0000FFFF000084
:10345000FFFF0000FFFF000000080042000C0042D8
:1034600000100042561800005218000052180000C8
:10347000B4180000B41800006A1800005C180000BE
:1034800070180000A2180000381A0000181A000076
:10349000181A0000A41A00002A1A0000461A000098
:1034A0001C1A0000541A0000941A00000D0E0000AF
:1034B000F8B5C046F8BC08BC9E467047B500000091
:1034C000F8B5C046F8BC08BC9E4670478D000000A9
:1034D000401F000008000000000000000000000085
:1034E0000500000001FF01006666666666666666A6
:1034F0006666666666666666666600006666666638
:103500006666666666666666666666666666000027
:1035100080740F39F37E23C1980900880480380035
:103520004004000080740F39F37E23C1980900889D
:10353000048038004002000080740F39F37E23C1FC
:1035400098090088048038004002000066666666BC
:1035500066666666666666666666666666660000D7
:1035600080740F39F37E23C19809008804803800E5
:103570004004000080740F39F37E23C1980900884D
:10358000048038004002000080740F39F37E23C1AC
:10359000980900880480380040020000666666666C
:1035A0006666666666666666666666666666000087
:1035B000E400002000000000000000000000000007
:1035C00000000000000000000000000000000000FB
:1035D00000000000000000000000000000000000EB
:1035E00000000000000000000000000000000000DB
:1035F00000000000000000000000000000000000CB
:1036000000000000000000000000000000000000BA
:0436100000000000B6
:0400000300001FC515
:00000001FF
