S01800004C45444D6174726978466C75747465722E73726563DC
S1130000B80C0020F11F0000ED1F0000ED1F0000E0
S113001000000000000000000000000000000000DC
S1130020000000000000000000000000ED1F0000C0
S11300300000000000000000ED1F0000ED1F0000A4
S1130040ED1F0000ED1F0000ED1F0000ED1F00007C
S1130050ED1F0000ED1F0000B506000000000000C9
S1130060ED1F0000651000007510000085100000F1
S1130070ED1F0000B9170000C9170000F5050000C6
S1130080ED1F0000ED1F0000ED1F000010B5064C31
S11300902378002B07D1054B002B02D0044800E045
S11300A000BF0123237010BD3001002000000000B8
S11300B064340000084B10B5002B03D007490848EE
S11300C000E000BF07480368002B00D110BD064BB9
S11300D0002BFBD09847F9E7000000003401002012
S11300E064340000643400000000000070B5002097
S11300F0084B98470500084CFA218900A047074B94
S1130100186007492800A047064B18600522064BD3
S11301101A6070BD7D1D0000792E000000000020D3
S113012040420F000400002010E000E030B5084B0E
S11301301C68084A002580214902013807D3002C95
S1130140FBD05460956013680B42FCD0F5E730BDDA
S11301500400002010E000E030B5084B1C68084A99
S1130160002580214902013807D3002CFBD05460BC
S1130170956013680B42FCD0F5E730BD0000002009
S113018010E000E010B5002200230270427000214C
S11301904280017103760262C26182600373C024EB
S11301A06401C481037443748374C37403752A247F
S11301B0035543758375063C0355C2840285C17596
S11301C02B23C1540133C15410BD0000F0B5D646F1
S11301D04F464646C0B596B0070016000160C64AB1
S11301E0106A80235B00034313620B780520DB074E
S11301F005D516B01CBC90469946A246F0BD0B78B6
S113020017309B07F5D473783B71002B04D1BB4A9C
S1130210136C04210B4313640023BB60FB603B613C
S1130220BB76FB763B833B77B54B1F602A23F35C9D
S1130230002B05D1337D002B02D101337B7701E004
S113024000237B773B68984633786A461370694687
S11302501320AC4B98471320AB4B98472C23F25CEC
S1130260002A54D0013BF55C337BEB18DBB2D11888
S1130270C9B28B4221D25219D3B29946A34B9A46A2
S113028003E00135EDB24D4517D00F242C40337BEC
S1130290E41850229E4902A8D047092CF1D8A400A2
S11302A002ABE05801A900234B70CB708B70013373
S11302B00B70C0B2974B9847E3E7F48950229449F6
S11302C002A8924B9847092C13D9737D9B00DBB28B
S11302D042461370B37DDB0172781343DBB24246AE
S11302E053703379342B00D97BE19B008A4AD3586D
S11302F09F46A40002ABE05801A900234B70CB70C9
S11303008B7001330B70C0B2824B9847DDE7347BAE
S113031050227F4902A87D4B9847092C15D9F489AE
S113032050227B4902A8794B9847092CCDD8A400C8
S113033002ABE05801A900234B70CB708B700133E2
S11303400B70C0B2734B9847BFE7A40002ABE058F0
S113035001A900234B70CB708B7001330B70C0B2BA
S11303606C4B9847DBE70423102402211AE0717CCC
S1130370337C102416E006231024012112E0082304
S1130380102400210EE00023302400210AE0002381
S11303902024002106E000230024002102E002239F
S11303A010240121090170220A401343424693702C
S11303B0F37D17203F2B00D91BE7D3703A68537E97
S11303C05BB2002BFBDBF37C728813432422B25C08
S11303D0D2001343327D92001343B27C5200134384
S11303E0234342469380337E002B20D0102C00D12F
S11303F0D9E000D898E0202C00D1B6E0302C16D1FA
S1130400F27C002A0AD0F26980321720FF2A00D930
S1130410EFE6326A8032FF2A00D9EAE61720F26951
S1130420FF2A00DDE5E6326AFF2A00DDE1E63968ED
S11304304A7E52B2002AFBDB424613723A68537E6C
S11304405BB2002BFBDBB38B424693833A68537E4B
S11304505BB2002BFBDB338C424613842C23F35C0E
S1130460002B05D0013BDBB217200F2B00D9C0E6CF
S11304702B22B15C17200F2900D9BAE63868427ED6
S113048052B2002AFBDBF289307B0243B06802439C
S113049009050A431B041343424613612A23F35CF0
S11304A013750F2393751533F35C002B12D0F38C63
S11304B01A4A1720934200D99BE642469384328D10
S11304C080231B01D31815499BB28B4200D990E6B7
S11304D04346DA84124B1B685B01E022D2001340CE
S11304E0104A516849011268D20E0A43D2B213432A
S11304F04246138500207CE60004004000080040CA
S11305009C020020951E0000091E0000C13100005D
S11305109C3300008D1F0000C8320000FF0F000054
S11305202460800020608000002C00D07FE7F27CF3
S1130530002A0FD0F269802109018C4662442A49BD
S113054017208A4200D954E6326A624426498A4214
S113055000D94EE6244A1720F169914200DD48E6AD
S1130560316A914200DD44E661E7F27C002A0FD053
S1130570F269802189008C4662441C4917208A4212
S113058000D936E6326A624418498A4200D930E614
S1130590164A1720F169914200DD2AE6316A914238
S11305A000DD26E643E7F27C002A0FD0F2698021C1
S11305B009028C4662440E4917208A4200D918E683
S11305C0326A62440A498A4200D912E6084A17206C
S11305D0F169914200DD0CE6316A914200DD08E6E2
S11305E025E7172005E6C046FF0F0000FF030000C3
S11305F0FFFF000070B52E4B1C6823681D7EEDB212
S1130600EA0705D5E27ED20702D5A27ED20716D428
S11306106B0708D5042322681376E37E9B0702D573
S1130620A37E9B073CD4AB0708D50223226813762C
S1130630E37E5B0702D5A37E5B0735D470BD012240
S11306401A762268537E5BB2002BFBDB61698B1C3C
S11306506361538B9BB20B80238B013B9BB223833F
S1130660002B11D0637F002BD2D02268537E5BB263
S1130670002BFBDB137B02210B4313732268537E95
S11306805BB2002BFBDBC3E7237F052BC0D1002328
S113069023770133226893752000A3689847B7E74E
S11306A02000E3689847BEE7236920009847C5E720
S11306B09C02002010B5264B984726490B8C072234
S11306C013409B002448185803781A403F23CA5407
S11306D00F33CA5CD2B203781B012049C918498878
S11306E01F4CE3185B88CB1A4361D3070FD5012154
S11306F04E23184AD1543E3B4374037CDB0703D595
S11307004368002B00D09847164B984710BD9307B9
S11307100DD502214E230F4AD15400234374037C88
S11307209B07F1D58368002BEED09847ECE753077D
S1130730EAD504214E23074AD154483B4374037C31
S11307405B07E1D5C368002BDED09847DCE7C046E1
S113075001180000004800414C010020A0020020C4
S1130760600100204118000000230370437003223D
S11307708270C37003717047F8B5CE46474680B5A2
S113078005000E00454B9847454B1B78002B18D1AC
S1130790444B5A6920210A435A61DA6910390A43E1
S11307A0DA61414B1A880E398A431A8001221A8071
S11307B03E4A5A633E4A9A633E4A1A80384B0122A3
S11307C01A70364B9847364B5B68DA070FD55B08CF
S11307D0012401221A420BD05B080134E4B2052C37
S11307E0F8D1354B9847344B9847142051E00024F6
S11307F02B4A51680123A3400B435360137A013BF6
S113080013722D4B9847FF2CEDD02C70072398467C
S11308101C40254F38339946FC540133FA5C0221BD
S11308208A43FA540124FC541C4B98472B784246C3
S113083013404A46BB543B692A789440A3433B6126
S1130840327852016023134072781202F821490170
S11308500A401343B2789205C02109040A401343A5
S1130860F178002904D007220A4008210A431343DF
S11308703279002A01D0102213430B4A53640E4CE0
S1130880A0470023AB612B789B000C4A9D50A047E6
S113089000200CBC90469946F8BDC04601180000E3
S11308A0080000200004004000480041A00200208D
S11308B060010020020F0000411800004C010020DC
S11308C070B50400194B9847637C052B08D0A369C5
S11308D05B889BB2002B07D1154B9847172070BD3E
S11308E0134B98470520FAE74026124B1E602278E6
S11308F007231A40104D3F216A5422780F498A5C1D
S113090013404D22AB5405236374207800010C4B33
S1130910C018A1693D3A0B4B9847AB5D02221343C3
S1130920AB55034B98470020D9E7C0460118000097
S11309304118000000E100E000480041B00100203F
S1130940A0020020C1310000F0B50A780388012616
S113095032400124A343134303804B7804880327C4
S11309603B405B00062294431C4304808D7804883A
S11309703D40ED0018239C432C430480CA7803882F
S11309803A401202164C2340134303800B79048827
S113099033409B02134A14401C4304804D7904885D
S11309A03540ED02104B1C402C4304808A790388A7
S11309B0324012030D4C234013430380CB790722AA
S11309C01A4003885203DB04DB0C134303800B89B6
S11309D04380CB6843600B6983604B69C360F0BD9F
S11309E0FFFCFFFFFFFBFFFFFFF7FFFFFFEFFFFF32
S11309F0427C0523052A0BD08369002B0AD0DA68D0
S1130A00002A03D0DB68DA68002AFBD1D96000230E
S1130A101800704781610023FAE70000F0B5CE4664
S1130A20474680B583B005000C00160029600B68AA
S1130A301C209B0704D503B00CBC90469946F0BD1E
S1130A400B681738DB07F6D408004D4B99469847D6
S1130A504C4A116A831C0127B8469F403B000B4354
S1130A60136201A9737E0B700E30C3B21F0018000D
S1130A70454B98473800454B9847707E0021444BBE
S1130A8098472868C84707004249434B9847BF0026
S1130A90424BFD5000232422AB540132AB54EB846F
S1130AA0337E6B72102323602C683389EB80337C94
S1130AB02B7280236A461370002353706B464246A0
S1130AC09A7000236A46D370F069356A00284BD0C7
S1130AD06B46187002236A465370000CC0B2694614
S1130AE02F4B9847002D44D06B461D7002236A4655
S1130AF053702D0CE8B26946294B9847B37E802287
S1130B00002B04D1274B9B789B07DB0FDA012523AD
S1130B10F35C002B04D180239B047169994202D1B8
S1130B2080231B051A432068736871690B432421D1
S1130B30715C89070B432621715CC9050B43034390
S1130B4013432360728980235B0013436360B3897A
S1130B505B00F28952041343727C1343327CD20348
S1130B6013436362002066E7002120000E4B984780
S1130B70AEE7012120000C4B98470500B4E7C046BE
S1130B80CD0F000000040040951E0000091E000067
S1130B90C10E0000190C000009100000F002002032
S1130BA08D1F0000002000410D0F000010B5931CA4
S1130BB09B00C31859602424035D012191400B4319
S1130BC0DBB2035510BD028D0523002A01D01800A5
S1130BD070474B68C3620B8803850B88C384053256
S1130BE03123C254036802329A750023EFE7028D61
S1130BF00523002A01D0180070474B68C3620B8894
S1130C0003850B88C38405323123C254036802323E
S1130C109A750023EFE7000070B580009B4BC45821
S1130C2025682523E35C2422A65C1E402B7E9B07BB
S1130C3000D495E0E38C9BB2228D93420DD03023F7
S1130C40E35C002B09D13122A354E3842385B30749
S1130C500BD523692000984707E0E38C9BB29A42A6
S1130C6003D03023E35C012B22D06A8B43231A4246
S1130C7004D01022123BE254B30624D4637A002B2E
S1130C8025D16B8B1B074AD501223023E25473070D
S1130C9038D4E38C9BB2002B38D125687C4B984721
S1130CA000236B838023DB026B607A4B984718E048
S1130CB000233122A354E3842385F307D5D5E368C5
S1130CC020009847D1E7236A20009847D6E7256893
S1130CD06F4B984700236B838023DB026B606D4B63
S1130CE0984723681A7ED20701D501221A76022278
S1130CF01A762468664B9847002363836360654BC8
S1130D00984770BD636920009847C2E72568604B27
S1130D10984700236B836B605E4B9847E1E70022A2
S1130D203023E25433070ED4E38C9BB2002B0ED154
S1130D302568574B984700236B838023DB026B6045
S1130D40544B9847CDE7A36920009847ECE7256802
S1130D504F4B984700236B836B604E4B9847C0E71B
S1130D602B7EDB072ED501232B7604332B75203302
S1130D70E35C5B0705D42523E35C082B01D0022345
S1130D802B753123E35C1E2BBBD03123E35C102B8A
S1130D90B7D000233122A354E3842385B30703D5BA
S1130DA03023E35C002B09D0F307AAD53023E35C9E
S1130DB0012BA6D1E36820009847A2E7236920000D
S1130DC098479EE72B7E5B079BD5238D002B1ED077
S1130DD03022A25C012A13D0E38C9BB2002B00D1F9
S1130DE08FE73023E35C002B44D0E36A5A1CE262B1
S1130DF01B78DBB22822AB54238D013B238580E78B
S1130E00E28C92B29342E7D26B8B5B07E4D500236A
S1130E102385E3843033E35C002B17D11C4B9847C4
S1130E2000236B838023DB026B601A4B98476A684C
S1130E3080239B0213436B601E223123E254F3068A
S1130E4000D45EE7E369200098475AE7104B9847BF
S1130E5000236B838023DB026B600E4B98476A6828
S1130E6080239B0213436B6031230022E2542D3B09
S1130E702B7546E7E26A531CE3622823EB5CDBB282
S1130E801370238D013B23853BE7C046F00200200D
S1130E90011800004118000010B54908402300243F
S1130EA0814202D2180010BD1C00091A631C9BB2B7
S1130EB08842F9D94023FF2CF4D814800023F1E7A9
S1130EC010B582B004000E4B1B78002B07D000290C
S1130ED005D10B4B5B78834210D01D200CE001A997
S1130EE00C700D20074B98470D20074B9847044B77
S1130EF05C7001221A70002002B010BD0020FBE7D4
S1130F00B8010020951E0000091E0000204B9842E5
S1130F1017D0204B984224D01F4B984201D0002078
S1130F207047012907D000292BD0022905D00329B5
S1130F3005D00020F4E71948F2E71948F0E719480A
S1130F40EEE7012907D000291DD0022905D0032985
S1130F5005D00020E4E71448E2E71448E0E7144829
S1130F60DEE7012907D000290FD0022905D0032983
S1130F7005D00020D4E70F48D2E70F48D0E70F4848
S1130F80CEE70F48CCE70F48CAE70F48C8E7C0468A
S1130F90000C00420010004200080042030005005B
S1130FA003000600030007000200170003001E00F0
S1130FB003001F00030017000300100003001900C2
S1130FC003000400020016000300160030B585B0CB
S1130FD001AA0B4B32CB32C20300019A82420CD0DD
S1130FE0029A824207D00020039A9A4201D005B0A7
S1130FF030BD023002E0012000E00020C0B2F6E77C
S1131000EC3300007047000030B50A4B1B78002B0E
S11310100CD1094C094D2560094B00221A6065600A
S11310205A60A5609A600132024B1A708000024B2C
S1131030C15030BDBA010020BC01002005100000E1
S1131040F002002010B582B001AC092323700133F3
S113105063700133A370024B9847205602B010BD51
S1131060CD0F000010B5024B1B680020984710BD3F
S1131070BC01002010B5024B5B680120984710BDED
S1131080BC01002010B5024B9B680220984710BD9C
S1131090BC010020F0B58BB005000C0016002960DF
S11310A00B681C209B0701D50BB0F0BD0B681738EB
S11310B0DB07F9D408006F4B98476F4A116A871C05
S11310C00123BB400B43136209A92427F35D0B7072
S11310D00E30C3B201931800684B98470198684BCF
S11310E09847F05D0021674B98473378012B3FD038
S11310F03378002B03D123680822134323602B0089
S11311000C3329002831002204C38B42FCD1002374
S1131110EB62AB620024AB862B863633EC5401338E
S1131120EC540133EC54353B6B722C712868514BF1
S1131130984707005449554B9847BF00544BFD50FE
S11311402F6804AB80221A705C707F3A9A70DC704E
S11311503378002B02D1002204AB9A70B36A059352
S1131160F36A0693336B0793736B089300240BE0C5
S113117023680C2213432360BAE73800454B984791
S11311800AE00134042C10D0E1B2A30002AA0C201E
S11311901218D0580028F0D0431CF2D004A90870CB
S11311A0000CC0B23C4B9847EBE733786B71337C4F
S11311B0AB71B37CEB71337D2B72002202ABDA800E
S11311C03378012B12D03378002B26D1B069B28B3F
S11311D07B6AF17F0904B47F214319437962202398
S11311E0F35C002B1BD040231A4318E02868214BE2
S11311F098470E30C0B2294B9847010002AB9A1DA4
S1131200B069274B984703001720002B00D04BE709
S113121002AB06331B783B73D5E7002200207368CA
S1131220B1680B43F1680B430343317C0A43717C7F
S1131230002903D11B498978890701D580210B43F3
S1131240B17C002902D0802189020A43F17C002963
S113125002D0802189000A43317D002902D08021F7
S113126089010A4339680B433B607B681A437A60FF
S1131270002019E7CD0F000000040040951E000077
S1131280091E0000C10E0000A91200000910000090
S1131290F00200200D0F00008D1F0000B11E0000A1
S11312A0990E000000200041F8B58000854BC45819
S11312B026683723E35C3622A75C1F40337EB57D66
S11312C01D40EB072ED56379012B25D0002B29D1A6
S11312D0637A002B26D02168E26A1378DBB2501CB3
S11312E0E062A079012800D169E09BB2DB05DB0D47
S11312F08B62A38E013B9BB2A386A38E9BB2002B71
S113130010D101333375637A012B0BD1E379002BB0
S113131008D10233B37505E0637A002B3ED0637ABB
S1131320002BD8D16B0711D5738B5B0751D5637A2A
S1131330012B08D01E223823E254353B637202335A
S113134033753B0741D4B36A04237383AB0715D5C4
S11313506379002B0ED107333375053B33760133A4
S113136063720023A386238638330022E254FB06EB
S113137000D57FE06379012B00D17FE02B0708D5EE
S11313806379002B05D1083333753376BB0600D55A
S11313908AE06DB2002D00DA8AE0F8BD4A4B1B8862
S11313A0B362638E013B9BB26386638E9BB2002B58
S11313B001D1013333756379012BB0D086E75078BE
S11313C0000203430232E26290E72000A3699847D7
S11313D0B9E7637A012B27D023689B6ADB05DB0D11
S11313E0DAB2A16A0A70A26A511CA162A179012928
S11313F033D0238E013B9BB22386238E9BB2002BDA
S1131400A4D100223833E254343B3375637A022B7F
S113141029D0637A002B00D098E7BB0700D495E766
S113142020002369984791E723689B6A638E013BF8
S11314309BB26386638E9BB2002B00D086E7043395
S1131440337500223433E254353B6372FB0700D416
S11314507CE72000E368984778E71B0A5370A36A87
S11314600133A362C5E77B0700D46FE720006369FB
S113147098476BE72000E36998477BE7637A012B81
S113148000D086E7E379002B00D082E7023333757E
S11314900133637200223533E254FB0700D46DE755
S11314A02000E368984769E72000236A984770E7BB
S11314B08023337533767B0600D46EE7636A20009D
S11314C098476AE7F0020020FC020020064B98428D
S11314D008D0064A0023904201D018007047013317
S11314E0DBB2FAE70023FBE700180042001C0042CD
S11314F0F0B585B004000D0016000800824B984733
S1131500070003AB12221A705A7002AB2E321A80F3
S113151040325A800023A360E36023616361237631
S113152063768200794BD4502560B378082B06D0BB
S113153023712B880520DB0705D505B0F0BD1720E6
S1131540FA07FAD4F4E7EB7B1730DB06F5D42B88E3
S11315509B07F2D4337C002B00D07AE0337F002B3E
S113156000D082E06A49086A7A0002ABD35A034386
S11315700B62B378082B00D187E033786A46137086
S113158003ABDF5D69463800624B98473800624B15
S113159098473189B3880B43B178B2791143194321
S11315A07378002B02D080231B0119432268D37B5C
S11315B05BB2002BFBDB2980717B4B1E99418900B8
S11315C0B37B002B01D0012319432268D37B5BB288
S11315D0002BFBDBFF232B71002905D02268D37B72
S11315E05BB2002BFBDB6971B17AF37A002B01D07B
S11315F010231943337B002B01D020231943226885
S1131600D37B5BB2002BFBDBA9712268D37B5BB27B
S1131610002BFBDB2379042B3FD0082B5ED0172053
S1131620002B00D089E7D37B5BB2002BFBDB338D2F
S11316302B822268D37B5BB2002BFBDB738D2B8365
S11316402268D37B5BB2002BFBDBB38D6B83002062
S113165073E701A901238B700022CA70327E0A70DD
S11316604B70307D2D4B984778E701A901238B708F
S11316700022CA702432B21812780A704B701F33D9
S1131680F3181878254B98476CE7086A7A1C5200BF
S113169002ABD35A03430B626FE7D37B5BB2002BDD
S11316A0FBDB2823F35C2B742268D37B5BB2002B17
S11316B0FBDB2923F35C2B752268D37B5BB2002B05
S11316C0FBDB2A23F35C2B762268D37B5BB2002BF3
S11316D0FBDB2B23F35C6B7600202EE7D37B5BB222
S11316E0002BFBDBB36A2B612268D37B5BB2002B3C
S11316F0FBDBF36AAB612268D37B5BB2002BFBDBC1
S1131700336BEB61002018E7CD14000000030020C8
S113171000040040951E0000091E00008D1F0000FB
S1131720931C9B001950022A09D0032A0CD00123D0
S113173093401A00037E1343037600207047037E10
S1131740102213430376F8E7037E20221343037623
S1131750F3E7000070B58000164BC45823689D7BE6
S1131760227E637E13401D40EB0706D4AB070BD4E7
S1131770EB0610D4AB0615D470BD2000A3689847BF
S1131780012322689373F1E72000E368984702235A
S113179022689373ECE7200023699847102322689A
S11317A09373E7E7200063699847236820229A73BC
S11317B0E2E7C0460003002010B50020014B984723
S11317C010BDC0465517000010B50120014B9847C5
S11317D010BDC0465517000000B583B001AB802290
S11317E01A700A785A704A789A708A78DA701900EE
S11317F0014B984703B000BD8D1F000070470000E7
S11318000C4B1B68002B06D1EFF31083002B07D081
S11318100022094B1A70074A13680133136070479A
S113182072B6BFF35F8F0022044B1A700132024B71
S11318301A70F0E7C8010020CC0100201400002039
S1131840084B1A68013A1A601B68002B09D1064B31
S11318501B78002B05D00122044B1A70BFF35F8F55
S113186062B67047C8010020CC010020140000209B
S113187010B5082803D880001B4B1B589F46002036
S113188030E01A4B18692DE0194B1B6A9B059B0F1E
S11318901848D84026E0154B586923E0134B1B68C1
S11318A000209B071ED512491022CB681A42FCD097
S11318B00E4B1B685B0701D40F4813E000200F4B4D
S11318C098470A4B9B681B041B0C58430AE050239F
S11318D0074AD35C00205B0704D5044BD86801E0B9
S11318E08020000210BDC046F8330000D001002063
S11318F00008004000127A00006CDC02B11E0000F7
S113190070B50C490B6A0478857840780122104040
S113191080014026B34303432A40D20180208343FD
S113192013430322224012020348034013430B6271
S113193070BDC04600080040FFFCFFFFF0B5CE4676
S1131940474680B5194B99469B6941788C46057882
S11319500679C77844798078012108408000042200
S11319609343034360460840C00004329343034357
S11319703800084080014027BB430343300008403F
S1131980C0018026B3430343072005402D020848C5
S113199003402B4321400903064803400B434A46B6
S11319A093610CBC90469946F0BDC04600080040C7
S11319B0FFF8FFFFFFEFFFFF10B5037A9B061B0C38
S11319C042899205920D134318494B608379C27979
S11319D0134342888488224313434278D201134339
S11319E00B600378042B11D0202B0ED1037B9B06B4
S11319F0028A1343C28912040D490A4013430B4A55
S1131A00936011680B4B0B43136010BD037B9B0663
S1131A10028A1343C289120405490A401343034A44
S1131A209360136804210B431360EEE7D001002098
S1131A300000FF0324040000082803D88000254B7D
S1131A401B589F46172044E0234A136A02210B4384
S1131A50136200203DE0204A936902210B43936105
S1131A60002036E01C4A138A02210B431382002013
S1131A702FE0194A938A02210B439382002028E025
S1131A8016490B68022213430B60134B9A84190006
S1131A900E32CB681A42FCD0104A91680E4BD962C0
S1131AA052689A6200229A8419001032CB681A4252
S1131AB0FCD00A4B1B689BB2074A9384002008E0C1
S1131AC0054944228B5C022003438B54002000E030
S1131AD0002070471C34000000080040D0010020A2
S1131AE0F0B5CE46474680B58DB0C222D2004D4BEC
S1131AF09A604D494B681E2293431C3A13434B6032
S1131B0001AB1A700024494DE0B201A9A847013481
S1131B10182CF9D1464C2368DB0442498A695B0ED0
S1131B201B044448024013438B610AA801234370F9
S1131B3083700025C57003710633037045713E4BF5
S1131B40984704203D4B984705AB00225D809D805B
S1131B509A71DA713F2159813B3919705A7023689F
S1131B609B0E3F2B5BD005A80372B723DB000382D7
S1131B70072303733833C381314B984704A80025E6
S1131B8045700126867005702E4B984706202B4F12
S1131B90B8472D4B984701AC029665702572657263
S1131BA00423237021000120284B994698470120E3
S1131BB0274B984698476660657006232370257204
S1131BC0657221000320C8470320C0472670210006
S1131BD00020164B984700201E4B98470720B84713
S1131BE01049D022CB681340D02BFBD11A4A0023D2
S1131BF0137253729372D37201A901224A604B701B
S1131C000B724B7207330B700020104B9847002067
S1131C100F4B98470DB00CBC90469946F0BD203B45
S1131C20A1E7C0460008004000400041951E0000A6
S1131C3024608000FFFF80FF3D190000391A000076
S1131C40B9190000011900005D1C0000811C00008E
S1131C50391D0000091E000000040040064A936973
S1131C6008210B4393610122044B1A7019000B786D
S1131C701342FCD17047C04600040040000C0040F1
S1131C8070B5060004000D782D0205434B78002B37
S1131C9002D08023DB021D434B7A002B02D0802329
S1131CA01B031D434868012810D9431E184234D130
S1131CB0022830D90223002201325B009842FBD86B
S1131CC012023243140080235B031D430B7A002B62
S1131CD002D080239B031D43134A53785BB2002B2D
S1131CE0FBDB124B9847124B1E700F4A53785BB2C2
S1131CF0002BFBDB0C4B9C601A0053785BB2002B6F
S1131D00FBDB094A5368802149020B401D4355609F
S1131D10084B984770BD0022D2E704023443802365
S1131D209B021D43D2E7C046000C0040011800008E
S1131D30080C00404118000010B504000B4A537809
S1131D405BB2002BFBDB0A4B98470A4B1C70074A1B
S1131D5053785BB2002BFBDB044A516880235B029F
S1131D600B435360044B984710BDC046000C004021
S1131D7001180000040C00404118000070B5040074
S1131D801A4A53785BB2002BFBDB194B9847194B6B
S1131D901C70164A53785BB2002BFBDB134E706841
S1131DA0C004C00E144B98470500124B1C70766893
S1131DB0F602F60F114B1C700C4A53785BB2002BE1
S1131DC0FBDB0A4B9C682402240C0D4B9847002E25
S1131DD007D1012C07D9210028000A4B9847050098
S1131DE001E00134E540280070BDC046000C00400D
S1131DF001180000040C004071180000080C004099
S1131E0041180000792E000010B50400064B9847D5
S1131E10064B1C70064A53888021C9010B4353802A
S1131E20044B984710BDC04601180000020C004046
S1131E30000C00404118000010B504000F4B9847F7
S1131E400F4B1C700F4A53881B05180F53880E49FB
S1131E500B40538053880D490B405380110080225E
S1131E60D2014B881342FCD106494A880302064832
S1131E70024013434B80064B984710BD01180000E5
S1131E80020C0040000C0040FFF0FFFFFFBFFFFF0B
S1131E904118000010B50C7824020443024B984703
S1131EA0A4B2024B5C8010BD391E0000000C00403F
S1131EB010B50400064B9847064B1C70064B5C8813
S1131EC02405240F054B98472000054B984710BD67
S1131ED001180000020C0040000C004041180000F2
S1131EE07D1D000030B5D378002B35D11378802BBD
S1131EF029D01B0680246402234354780225AC4372
S1131F0006D19478002C20D18024A402234341607C
S1131F105478013C012C1CD90D042D0CA024E4059B
S1131F202C431C4384620D0CD02424062C431C43F4
S1131F308462D478002C22D15B031CD59378012BC6
S1131F401ED0416117E00023D7E7C024E4022343F5
S1131F50DDE70D4C2340DFE741600C04240CA02393
S1131F60DB05234383620C0CD0231B0623438362CB
S1131F70D378002B03D15378013B012B02D930BD18
S1131F808161F8E78160FAE7FFFFFBFF10B50A0003
S1131F90C1090023002904D14309DB0105498C460A
S1131FA063441F242040012181401800024B9847BC
S1131FB010BDC04600440041E51E0000704700000B
S1131FC010B5054B9847054B9847054B9847054B6B
S1131FD09847054B984710BDE11A0000FD17000013
S1131FE0BD1F0000BD1F0000BD1F0000FEE7000074
S1131FF010B5264A264B9A4211D01A00254B9A4214
S11320000DD2254A03339B1A9B0801339B000022FF
S11320101F481E498C58845004329A42FAD11F4AF0
S11320201F4B9A420AD2D3431D495B1803218B43A9
S113203004339B18002102C29342FCD1194AFF21A8
S1132040194B8B439360FD3990235B00174AD150A1
S1132050174B9A7B2E318A4320210A439A739A7B29
S11320600C218A4308210A439A739A7B03218A43E9
S113207002210A439A730F4A536880210B43536029
S11320800D4B98470D4B9847FEE7C046643400005B
S11320900000002030010020040000203001002056
S11320A0B808002000ED00E00000000000700041CE
S11320B0004800410040004165310000112E00003D
S11320C00300064A1268002A04D0044A1068C318A0
S11320D0136070470249014A1160F6E7E8010020E5
S11320E0B80C002070B50A4B1B78002B0FD00022CF
S11320F0074B1A70074C01212000074DA847200008
S113210012300221A847200024300321A84770BDC3
S11321108A02002059080020352B00000122034BBD
S11321201A700F32024BDA617047C046FA01002080
S113213000440041F8B5CE46474680B50024164B0E
S11321409846164E164B994609E01348154B984786
S1132150C8204000144B98470134082C18D025009F
S113216080232341424613700321104FCB00F01803
S1132170405DC04350704846C018405DC0439070F5
S1132180FB185B5DDB43D37003320139EED2DCE72D
S11321900CBC90469946F8BDEC010020380800209C
S11321A090080020C92800002D0100001808002014
S11321B010B58EB001AA0023002193711381002071
S11321C050709172117391735173117453619361CF
S11321D01177136253621385538593850133D37248
S11321E003339370013B1370A023DB009380FF2122
S11321F02923D154074C08492000084B98472268EA
S1132200D37B5BB2002BFBDB138802210B431380CF
S11322100EB010BD0803002000180042F1140000A5
S113222010B50C4C00220C4920000C4B9847206838
S11322300B4B98470B4B1A5C1F23134001221100D0
S11322409940094B1960637E01210B43637623682F
S11322505A7310BD080300201D210000211700003F
S1132260CD1400004034000000E100E010B503206C
S1132270014B984710BDC046712D000010B50128D0
S113228002D0022803D010BD024B9847FBE7024B53
S11322909847F8E7CD250000E520000010B502229C
S11322A0124B1A70124B1B78022B09D0114B1B785E
S11322B0002B0ED0012B0FD00C4B1A780C4B1A703C
S11322C00D4B1B78002B0AD1084B18780B4B984701
S11322D010BD0B4B9847EFE70A4B9847ECE70022F9
S11322E0054B1A70084B9847EEE7C046F9010020E9
S11322F0150000208C020020FA0100207D2200003D
S11323006D220000112600003521000010B5024B9B
S11323109847024B984710BDB121000021220000CC
S11323200122014B1A7070478B0200200122054BD9
S11323301A700023044805495A5CC2540133372BF0
S1132340FAD170478A0200205808002004020020B5
S113235010B5094B1B78002B06D1084B1A78084B93
S11323601A70084A12785A70074902230B80044BEA
S11323704B60064B984710BD8D0200209002002050
S11323803C02002092020020FC010020EF0B000020
S113239010B5044937230B80034B4B60034B98471C
S11323A010BDC046FC01002004020020C70B000041
S11323B030B58BB000226B461A7080239B030193C7
S11323C001235B4269460B8100234A81CA810B7455
S11323D04B7405920B764B768B7624228B54013208
S11323E08B5401328B5411236A468B810E4B079315
S11323F00E4B08930E4D0F4928000F4B98472C683D
S113240020000E4B98471F2318401E3B83400C4A64
S1132410136029680322CB691A42FCD12368022283
S1132420134323600BB030BD0300160003001700F4
S113243024030020001000421D0A00004510000083
S113244000E100E0F8B5144C022214492000144EB7
S1132450B0472525635D042213436355022723688F
S11324609F75013A0F492000B047635D082213436A
S1132470635523689F7500220B492000B047635DB4
S113248001221343635509492000B047635D0222CA
S113249013436355F8BDC0462403002051230000B4
S11324A0AD0B000091230000212300002D23000028
S11324B030B5010000231A4C1A4D02E001330D2BF4
S11324C009D0D8B2E25CD2B28A42F7D8EA5CD2B27E
S11324D09142F3D200E00020134B1B7883421ED0BC
S11324E0072300220E4D0F4CAB54191DC9B2A15441
S11324F001321233DBB20D2AF6D1431EDA009B18E7
S11325005B000B33DBB2064A1354431CDA009B18FE
S11325105B000733DBB2034A1354034B187030BD1E
S113252088030020680300203F02002030B501002A
S113253000231A4C1A4D02E001330D2B09D0D8B2F6
S1132540E25CD2B28A42F7D8EA5CD2B29142F3D2C8
S113255000E00020134B1B7883421ED00723002287
S11325600E4D0F4CAB54191DC9B2A1540132123394
S1132570DBB20D2AF6D1431EDA009B185B000B3345
S1132580DBB2064A1354431CDA009B185B00073382
S1132590DBB2034A1354034B187030BD58030020B8
S11325A0780300203E02002010B5044B1878044B39
S11325B09847044B1878044B984710BD90020020AC
S11325C0B1240000920200202D25000010B5014B1B
S11325D0984710BDA925000070B507220023084EB6
S11325E0084D094C0948F254111DC9B2E954E2548A
S11325F0C15401331232D2B20D2BF4D170BDC04696
S1132600580300207803002088030020680300207A
S113261010B5014B984710BDD925000010B58CB0FA
S11326200220184B9847184B18606846174B984778
S113263001236A465370C0239B0053800423137301
S1132640C0235B01D38130231371114C1149200045
S1132650114B98472268537E5BB2002BFBDB802131
S113266009020E4B19600F23937513761378022118
S11326700B431370064B1A68537E5BB2002BFBDBD3
S11326800CB010BDAD3100004002002085010000F7
S11326908007002000200042CD01000000E100E09E
S11326A010B5014B984710BD1D26000030B52D4BC9
S11326B019684B7E5BB2002BFBDB0B691F22934333
S11326C0184308614B7E5BB2002BFBDB4B7E5BB295
S11326D0002BFBDB0B7B022213430B734B7E5BB2A1
S11326E0002BFBDB01200425022401E010420AD167
S11326F00B7EDBB202001A401D4200D022431C4272
S1132700F4D02A43F2E70A7ED2B2012313405007E1
S113271001D502200343920701D504221343DB07AA
S113272003D4114B1B68188830BD4B7E5BB2002B61
S1132730FBDB0D4B1B684A8B1A800A4B196801237B
S11327400B760A7ED2B21340500701D50220034310
S1132750920701D5042213435B07E2D502230B76CB
S1132760DFE7C046800700204002002070B50C005F
S11327702E4B1B78002B1DD000222C4B1A702C4B97
S113278018802C4B19802C4B18802C4B1980284B0B
S11327901A88294B1B88D31AD9175B184B40022B74
S11327A020DD274B1B8801339BB2032B14D8244A0A
S11327B013801CE01E4D2A88D3009B181818214E44
S11327C00A21B04728801B4D2B88D800C018001957
S11327D00A21B0472880DAE70021194B1980164BEB
S11327E01A8004E0144B1A800022154B1A80114BF6
S11327F01A88124B1B88D31AD9175B184B40022B2B
S11328000EDD114B1B8801339BB2032B02D80E4AF9
S113281013800AE000210C4B1980084B1A8004E055
S1132820064B1A800022084B1A8070BD1600002047
S1132830480200204A020020900200209202002058
S1132840440200208D2F00004602002070B50420B1
S1132850104CA04705000520A04701000E4C0123A1
S1132860237028000D4B98470D4B1B8859000D4AC7
S113287010880D4A88520022227001339BB2F5322F
S1132880FF32934202D0064A138070BD0022044BEB
S11328901A80FAE7AD2600008D0200206D270000A3
S11328A04C020020920200209803002070B5044CD2
S11328B0042565610320034B9847A56170BDC0469C
S11328C0004400412D01000070B5084B9847084BA7
S11328D09847084C80256D0465610120064EB04779
S11328E0064B98470120B047A56170BD65290000DB
S11328F0AD280000004400412D01000079290000AA
S1132900F0B583B001AC012565700027A770257070
S113291021000220074EB0476570A7702570210082
S11329201820B0476570A770257021000320B047B8
S113293003B0F0BDD917000070B5044B9847044CA0
S11329400825A561034B9847656170BD0129000006
S113295000440041AD2800000122014B1A70704769
S11329608E02002000230349C25CCA5401330D2B9C
S1132970FAD170470808002010B50548054B984760
S1132980054A1378002BFCD00022034B1A7010BDAB
S1132990B0070020C10800008E02002070B58EB080
S11329A001246B461C7000251D745D74DC741D7558
S11329B00C22002106A8194B98478023DB050193BC
S11329C080235B0502930395154B0A93154B0B93D8
S11329D001235B420C930D936B469D74124B06933B
S11329E0032224236946CA54104E6A461049300013
S11329F0104B9847356828000F4B98471F23184001
S1132A0084400E4B1C603268D369002BFCD12B68C8
S1132A10022213432B600EB070BDC046D3310000B8
S1132A2002001E0002001F00A0252600CC07002083
S1132A30000C0042951000004510000000E100E089
S1132A4070B586B068461A4B984704236A4653709B
S1132A500225023B9370174C69462000164B984799
S1132A6001226B461A70002369464B708B70CB7041
S1132A700A718B71CB7105934B710D330B810F4B25
S1132A800D3303930E4B04930E4E30000E4B9847B8
S1132A90310020000D4B98470D4BA360237C2B4342
S1132AA0237422780B498B5C2B438B5406B070BD86
S1132AB069070000B007002079070000080800201B
S1132AC0280C0042A007002049090000F109000079
S1132AD059290000B001002010B5024B9847024B61
S1132AE0984710BD9D290000412A000082B06B4622
S1132AF0D871DA79D979120909010A43D2B2DA71A3
S1132B00D879D9798008332202408900332081435F
S1132B100A43D2B2DA71D879D979400855220240F1
S1132B204900552081430A43D2B2DA71D879C0B240
S1132B3002B07047F0B5DE4657464E464546E0B50E
S1132B4083B00190022967D0032909D0012900D15B
S1132B50A4E003B03CBC90469946A246AB46F0BD07
S1132B60019F03267E4B98467E4B9B463F24BD78AF
S1132B702D02787800040543387800060543731E57
S1132B809A46A80EC047DA4453461872280D2040CE
S1132B908000C04753461874A80B2040C047B24673
S1132BA0DA4453461872280A20408000C04753462E
S1132BB0187403370236092ED9D1019C0934012631
S1132BC0674B9846674F3F239946A5782D02607856
S1132BD000040543207800060543731E9A46A80E98
S1132BE0C0475346F854280D4B4618408000C04750
S1132BF05346FB181876A80B4B461840C047B855E7
S1132C00280A4B4618408000C047BB191876033485
S1132C100236072ED9D19CE701980321524E3F2555
S1132C2083781B024278120413430278120613437A
S1132C304F1E9A0EF7193A721A0D2A4092003A74EE
S1132C409A0B2A4077183A721B0A2B409B003B745C
S1132C50033002310929E3D1019C0934012242489D
S1132C603F25A3781B02617809040B4321780906E8
S1132C700B43561E990E8155190D2940890086195A
S1132C803176990B294081541B0A2B409B008118F3
S1132C900B7603340232072AE3D15AE7019E032557
S1132CA02F4F324B9A463F24B078000273781B04AE
S1132CB0184333781B06184383466B1E9946800ECF
S1132CC0B847D1444B4618725B46180D204080002B
S1132CD0B8474B4618745B46980B2040B847A94642
S1132CE0D1444B4618725B46180A20408000B8470E
S1132CF04B46187403360235092DD5D1019C09348D
S1132D000125174F194E3F239846A0780002637897
S1132D101B04184323781B06184381466B1E9A46EE
S1132D20800EB8475346F0544B46180D434618409E
S1132D308000B8475346F31818764B46980B434621
S1132D401840B84770554B46180A4346184080004F
S1132D50B8477319187603340235072DD5D1F8E630
S1132D60ED2A0000380800209008002018080020F0
S1132D7010B502281CD00ED9032824D0042816D15B
S1132D8001211648164CA04703211648A0470221EA
S1132D901548A0470BE0012809D101211348104C24
S1132DA0A04703211248A04702211248A04710BDA2
S1132DB0012111480A4CA04703211048A0470221D1
S1132DC00F48A047F3E701210E48054CA047032113
S1132DD00D48A04702210D48A047E8E778020020EB
S1132DE0352B0000A400002054000020B80000206F
S1132DF06800002018000020500200207C00002001
S1132E002C000020640200209000002040000020DC
S1132E1070B50D4B98470D4B98470D4B98470D4B8C
S1132E2098470D4B98470D4B98470D4B98470D4BC2
S1132E30984701220C4B1A700C4E0D4D0D4CB047A7
S1132E40A8470120A047FAE7C11F0000ED000000D9
S1132E50B1230000452400000D230000392900009F
S1132E60D92A0000A12600008C0200204D28000071
S1132E709D22000059010000002243088B4274D3B4
S1132E8003098B425FD3030A8B4244D3030B8B4267
S1132E9028D3030C8B420DD3FF22090212BA030C70
S1132EA08B4202D31212090265D0030B8B4219D351
S1132EB000E0090AC30B8B4201D3CB03C01A524171
S1132EC0830B8B4201D38B03C01A5241430B8B42B9
S1132ED001D34B03C01A5241030B8B4201D30B03A2
S1132EE0C01A5241C30A8B4201D3CB02C01A5241C9
S1132EF0830A8B4201D38B02C01A5241430A8B428C
S1132F0001D34B02C01A5241030A8B4201D30B0274
S1132F10C01A5241CDD2C3098B4201D3CB01C01A8E
S1132F20524183098B4201D38B01C01A5241430998
S1132F308B4201D34B01C01A524103098B4201D386
S1132F400B01C01A5241C3088B4201D3CB00C01AF3
S1132F50524183088B4201D38B00C01A524143086B
S1132F608B4201D34B00C01A5241411A00D2014690
S1132F70524110467047FFE701B5002000F0F0F819
S1132F8002BDC0460029F7D076E7704703460B43DD
S1132F907FD4002243088B4274D303098B425FD34E
S1132FA0030A8B4244D3030B8B4228D3030C8B427A
S1132FB00DD3FF22090212BA030C8B4202D3121260
S1132FC0090265D0030B8B4219D300E0090AC30B35
S1132FD08B4201D3CB03C01A5241830B8B4201D3E2
S1132FE08B03C01A5241430B8B4201D34B03C01ACB
S1132FF05241030B8B4201D30B03C01A5241C30A43
S11330008B4201D3CB02C01A5241830A8B4201D3B3
S11330108B02C01A5241430A8B4201D34B02C01A9D
S11330205241030A8B4201D30B02C01A5241CDD242
S1133030C3098B4201D3CB01C01A524183098B428D
S113304001D38B01C01A524143098B4201D34B0176
S1133050C01A524103098B4201D30B01C01A5241D9
S1133060C3088B4201D3CB00C01A524183088B4260
S113307001D38B00C01A524143088B4201D34B0049
S1133080C01A5241411A00D20146524110467047BB
S11330905DE0CA0F00D04942031000D340425340C0
S11330A000229C4603098B422DD3030A8B4212D380
S11330B0FC22890112BA030A8B420CD389019211B2
S11330C08B4208D3890192118B4204D389013AD0EF
S11330D0921100E08909C3098B4201D3CB01C01AC4
S11330E0524183098B4201D38B01C01A52414309D7
S11330F08B4201D34B01C01A524103098B4201D3C5
S11331000B01C01A5241C3088B4201D3CB00C01A31
S1133110524183088B4201D38B00C01A5241D9D249
S113312043088B4201D34B00C01A5241411A00D2CA
S11331300146634652415B10104601D34042002BC6
S113314000D54942704763465B1000D3404201B545
S1133150002000F005F802BD0029F8D016E77047FA
S11331607047C04670B500260C4D0D4C641BA4106E
S1133170A64209D1002600F065F90A4D0A4C641BE9
S1133180A410A64205D170BDB300EB589847013690
S1133190EEE7B300EB5898470136F2E750340000ED
S11331A050340000503400005434000010B5034B78
S11331B00100186800F016F810BDC046CC000020CD
S11331C0002310B59A4200D110BDCC5CC454013325
S11331D0F8E703008218934200D170471970013355
S11331E0F9E70000032370B5CD1C9D4308350600A4
S11331F00C2D1ED20C25A9421DD8300000F062F817
S1133200254A14682100002919D1244C2368002B75
S113321003D1300000F044F820602900300000F0B1
S11332203FF8431C2CD10C233000336000F04BF8E2
S113323003E0002DDFDA0C233360002070BD0B683F
S11332405B1B1AD40B2B03D90B60CC18256003E04D
S11332508C420ED163681360300000F034F8200013
S113326007220B30231D9043C31AE7D05A42E25081
S1133270E4E74B6863600C00EEE70C004968C2E7C2
S11332800323C41C9C43A042E0D0211A300000F068
S113329007F8431CDAD1C6E7940200209802002004
S11332A0002370B5064C050008002360FEF708FFF4
S11332B0431C03D12368002B00D02B6070BDC04693
S11332C0B40800207047704796030000E205000030
S11332D0E2050000E2050000E2050000E20500004E
S11332E0E2050000E2050000E2050000E20500003E
S11332F0E2050000E2050000E2050000E20500002E
S1133300E2050000E20500007E030000E205000083
S1133310E2050000E2050000E2050000E20500000D
S1133320E2050000E2050000E2050000E2050000FD
S1133330E2050000E2050000E2050000E2050000ED
S1133340E2050000E20500008E030000E205000033
S1133350E2050000E2050000E2050000E2050000CD
S1133360E2050000E2050000E2050000E2050000BD
S1133370E2050000E2050000E2050000E2050000AD
S1133380E2050000E2050000860300009E03000041
S113339066030000760300006E03000002000000D4
S11333A00300000004000000050000000600000007
S11333B0070000000E0000000F0000000A000000DB
S11333C00B000000FFFF0000FFFF0000FFFF0000F4
S11333D0FFFF0000FFFF0000FFFF0000FFFF0000F1
S11333E0FFFF0000FFFF0000FFFF00000008004295
S11333F0000C004200100042821800007E180000F9
S11334007E180000E0180000E01800009618000084
S1133410881800009C180000CE180000641A0000F0
S1133420441A0000441A0000D01A0000561A000082
S1133430721A0000481A0000801A0000C01A000026
S11334400D0E0000F8B5C046F8BC08BC9E46704797
S1133450B5000000F8B5C046F8BC08BC9E467047ED
S10734608D000000D7
S1133464401F0000080000000000000000000000ED
S11334740500000001FF010066666666666666660E
S113348466666666666666666666000080740F39FC
S1133494F37E23C1980900880480380040040000A6
S11334A480740F39F37E23C198090088048038009E
S11334B44002000080740F39F37E23C19809008808
S11334C404803800400200006666666666666666C6
S11334D466666666666666666666000080740F39AC
S11334E4F37E23C198090088048038004004000056
S11334F480740F39F37E23C198090088048038004E
S11335044002000080740F39F37E23C198090088B7
S11335140480380040020000666666666666666675
S1133524666666666666666666660000D0000020A7
S11335340000000000000000000000000000000083
S11335440000000000000000000000000000000073
S11335540000000000000000000000000000000063
S11335640000000000000000000000000000000053
S11335740000000000000000000000000000000043
S11335840000000000000000000000000000000033
S9031FF1EC
